:400000000080002011000000AD030000AD03000008B5044B1A6803F53F5302331A6000F0CDF900BFFA46004010B5054C237833B9044B13B10448AFF300800123237010BD51
:400040005081FF1F000000001C180000084B10B51BB108490848AFF300800848036803B910BD074B002BFBD0BDE81040184700BF000000005481FF1F1C180000C880FF1F8A
:40008000000000000000000038B500F0E3FC00F005FB00F017FE00F029FE002000F028FF4FF47A7000F03AFC00F096FC04464FF47A7000F033FC00F08FFC0546012000F0FF
:4000C00017FF281B01F082F80022114B01F0E4F80DA3D3E9002301F009FA01F0EFFA0446012000F08FFA0021084600F0E5FA204601F034FB80B200F0FDFA4FF47A7000F0B6
:400100000DFCCAE7AFF3008000000000007C894000004E40FEE700BFF0B40022174611E050F82760F3B226F0FF0608E001EB420511F812406D78A5550132013BDBB2002B4D
:40014000F4D10137232FEBD9F0BC704708B50A46002101F05AFB08BD38B50122264B1A801823264A13700E2102321180023213700222234B1A7008224FF040231A70032146
:4001800003F5007319701F4B1B78DBB21E490B701E4B1A8041F25122023B1A80002419250CE01B4B1B7803F0010343EA440404F003044FF4F07000F0A7FE013D0DB1032C4E
:4001C000EFD115B90320FFF7A5FF124B4FF480721A8007221A7000220F490A704820023108701A700222033B1A700C4A137843F00303137038BD00BF804000408240004005
:400200000043004008010049A146004022420040254200400440004006400040A2430040F8B5164B1B78DBB2154E3478E4B2154F3D78EDB203F00701134A11701B0901328D
:40024000137044F00303337045F003033B7010220E4B1A7040230E4A13700232137001220C4B1A70202203331A700A2000F06CFB3D7034704422084B1A70F8BDCF01004945
:40028000F8460040F94600406E5800401D51004009590040285B00407658004008B501F0A9FA08BD38B572B62E4A137843F00403137000240CE02C4D630019194A00114670
:4002C0002A44084691882858FFF740FF0134E4B2082CF0D925494FF09040FFF71DFF04212348FFF733FF042222492348FFF7D6FF224A234B1A60234A137843F00203137097
:400300001032137843F0020313701F4C237843F040032370A2F58632513A137843F010031370082219491A48FFF7B8FF082219491948FFF7B3FF194A137843F00803137019
:40034000174D61232B70FFF707FF81232B700122144B1A70FFF764FF0E2221461248FFF79DFF38BDE84600402018000090000048007600405807004808760040040404C479
:40038000D80C014003500140A043004048070048125100405007004822510040224300400048004004000840B043004008B501F0F5F903680C2B00D1FEE7FEE708B5104E35
:4003C000104D16E029686B68AC68002204E051F8040B43F8040B0432A242F8D1E868002203E0002143F8041B04328242F9D11035013E002EE6D101F0D7F9FFF745FEFEE7CB
:40040000010000007C18000008B5114A114B1A60114A136843F40073136000230AE0032B03D80E4A52F8231000E00D490D4A42F8231001332F2BF2D90B4B1A780B4B1A7040
:40044000084A0B4B1A60FFF72DFF00F085F908BD0004FA050CED00E014ED00E000000000AD0300000080FF1FBC760040C080FF1F08ED00E010B50B4C237803F09F03237076
:40048000237803F0F00323702378184340F010002070012000F058FA237803F0EF03237010BD00BF2051004038B505460E4C237843F020032370237803F0BF032370002096
:4004C00000F042FA237803F0F003237023781D4345F010052570012000F036FA237803F0EF03237038BD00BF2051004070B5354B1A7802F08002D2B21A7033490A7802F080
:40050000F00242F00F020A7001310A7802F0F0020A7001310A7802F0F0020A701A7802F0DF021A701A7842F040021A704FF4CA76002000F009FA234D2B7843F010032B70DF
:40054000012000F001FA214B1C78E4B22B7803F0EF032B70002000F0F7F904F00804E4B22B7843F010032B70012000F0EDF92B7803F0EF032B7014B90A2000F0E5F9013E7E
:400580000CB1002ED4D10F4A137803F0BF031370137803F08003DBB213700232137803F0F00313700132137803F0F00343F00F0313700132137803F0F00343F00F0313707E
:4005C00070BD00BF20510040225100402151004010B50446FFF78AFF2009FFF765FF04F00F00FFF761FF10BD38B505460078012404E0FFF7EDFF285D0134E4B20028F8D1E6
:4006000038BD00BF10B50446FFF770FF2009FFF731FF04F00F00FFF72DFF10BD08B5282000F07CF90320FFF725FF052000F076F90320FFF71FFF0F2000F070F90320FFF74E
:4006400019FF012000F06AF90220FFF713FF052000F064F90620FFF7D5FF0E20FFF7D2FF2C20FFF7CFFF0820FFF7CCFF0120FFF7C9FF0C20FFF7C6FF0320FFF7C3FF0520AE
:4006800000F04CF908BD00BF08B50C20FFF7BAFF0122014B1A7008BD6C81FF1F08B5054B5B7823B9FFF7BAFF0122024B5A70FFF7EBFF08BD6C81FF1F08B5032819D8DFE82B
:4006C00000F002070D1381F08000FFF79BFF08BDA1F14000C0B2FFF795FF08BDA1F16C00C0B2FFF78FFF08BDA1F12C00C0B2FFF789FF08BD10B584B000238DF80E300922D2
:4007000011E0144BA3FB0013DB081C4603EB83035900431ADBB2303304A9114401F80C3C2046013AD2B20928EBD80A4BA3FB0013DB0803EB83035900431ADBB2303304A94D
:40074000114401F80C3C01AB9818FFF74DFF04B010BD00BFCDCCCCCC0B4A7F2313708021517007E0DA0002F1804202F5F042013BDBB21370002BF5D1DB0003F1804303F592
:40078000F04300221A707047CC80FF1F172815D831B103010A495A5C42F020025A5405E0030107495A5C02F0DF025A540001044A835C43F0010383540020704701207047C1
:4007C0001070004017280CD80001074BC1180A7942F004020A71C25C42F00102C254002070470120704700BF1070004017280BD80001064A835C03F0F103490001F00E019B
:400800001943815400207047012070471070004041F6FF73994201D14FF4005141F6FF739A4201D14FF40052172808D8C00000F1804000F5EC408180C28000207047012056
:40084000704700BF172805D8034B03EB0010417200207047012070471070004017281BD810B4C00000F1804404F5EC44D201D2B201F07F01114321709DF804201201D2B2E7
:4008800003F00F03134363709DF8083003F00F03A3700020E07001E00120704710BC704710B500F039FB0A4B5B78182B0BD9084A1478013B5370E30003F1804303F5F0439F
:4008C0001B78137000E0FF2400F02AFB204610BDCC80FF1F10F0800F0CD111F4704F0BD1C00000F1804000F5F04001808270C37000207047012070470120704710F0800FCF
:4009000008D1C00000F1804000F5F0408180C280002070470120704701BE704710B5044605E0084B186800F0EFFAA4F50044B4F5004FF6D8034B586800FB04F000F0E4FAD2
:4009400010BD00BFD480FF1F08B5034B1B7A00FB03F000F0D9FA08BDD480FF1F70B504460E46074B1D681F2802D90020FFF7D4FF04F01F04103455F8240045F8246070BD92
:4009800008ED00E038B504460D46072902D90020FFF7C2FF1F2C02D90020FFF7BDFF04F01F0000F1604000F564406D01EDB2057038BD00BF08B50222054B1A600549012071
:4009C000FFF7CCFF07210120FFF7DCFF08BD00BF80E100E0890A000010B50224064B1C6000F08CF8A0F5004000B2044B1B68044A1460184410BD00BF80E100E07081FF1F45
:400A000000E100E0024B187800F00F00704700BF6A64004040F00700014B1870704700BF8A64004008B50F20FFF7F4FFFFF7EAFF00F072FA054A137843F01003137000F043
:400A40006FFA0222024B1A6008BD00BF9A64004000E100E008B500F0A3F84FF4004000F047F80022064B1A60064B1B7823B9FFF7A1FF0122034B1A70FFF7D4FF08BD00BF1A
:400A80007081FF1F6E81FF1F0D4B1B78DBB213F0010F06D00B490A6802F5FF427F320A6007E013F0020F04D006490A68A2F500420A6013F0040F02D00022024B1A60704745
:400AC0006A6400407081FF1F024A137843F08003137070477A640040014B1870704700BF8D640040014B1878704700BF6D640040014B1880704700BF18680040024B1B781C
:400B0000024B188880B270470C64004098680040014B188880B2704798680040014B1880704700BF58680040014B1880704700BF7868004008B501E0FFF7EAFFFFF7D2FFC2
:400B400010F0400FF8D108BD08B5134B1A7802F0F8021A701A7802F0FC021A70FFF7EAFF4FF40040FFF7DAFF4FF40040FFF7C0FF0020FFF7B1FFFFF7B5FF4FF40040FFF717
:400B8000D3FF00F0C9F9054A137843F01003137000F0C6F908BD00BF7A6400409D64004008B5054B1B7823B9FFF7CEFF0122024B1A70FFF789FF08BD7481FF1F10B541F6F1
:400BC000FF734FF480420121022000F047F9084C207041F6FF731A460121022000F05CF96070044800F076F9002000F079F910BD7881FF1FF50C000070B52C4C2078FFF787
:400C0000E1FD6078FFF7DEFD294B1B78FF2B03D1FFF746FE264B1870254D2878062302460221FFF757FE214E341DA4B2224645F6A2312878FFF762FE29783078FFF702FE43
:400C40006B78FF2B02D1FFF72BFE6870184D6878072302460221FFF73DFE164A92B221466878FFF74BFE114C69786078FFF7EAFD01212078FFF78AFD01216078FFF786FDCB
:400C800000F04AF90C4A137843F02003137000F047F90A4B1A7842F001021A701A7842F002021A700122064B1A6070BD7881FF1FE480FF1F8881FF1F9865004078640040EB
:400CC00080E200E008B5074B9B6823B9FFF776FF0122044B9A6000F0ABF8FFF78DFF024B1B7808BD7881FF1F6B64004008B500F0ADF808BD704700BF08B50A280FD00C287E
:400D000002D0082806D102E04FF4805209E04FF4807206E00020FFF7FFFD002201E04FF480620021094B198042F2107303FB02F303F6C413064A82FB0302DB17C3EBE223A6
:400D4000044A1360044B198008BD00BF8C81FF1FAD8BDB689081FF1F9481FF1F10B500F0DBF80446184A137843F0020313701032137843F00203137002F5AA52103213787C
:400D800043F0030313701822104B1A70013B1A7842F040021A701A7802F0FC021A70C822053B1A700222A3F59753123B1A70084A137843F0080313700A20FFF7C5FD204669
:400DC00000F0AEF810BD00BFAB4300400E5900402F5B004010B504460A280DD00C2802D0082804D101E0C22207E0422205E00020FFF792FDC22200E08222034B1A702046C9
:400E0000FFF77AFF10BD00BF0A59004008B5064A137843F0060313700C20FFF7DBFF0022024B1A8008BD00BF095900408E81FF1F08B5054B1B7823B9FFF7E8FF0122024B9C
:400E40001A70FFF78BFF08BD8481FF1F024A137843F001031370704708590040F0B583B016461F460B4C012525700023019300932B460A4601462846FFF7F0FC3A46314653
:400E80002078FFF7C5FC02212078FFF7AFFC207803B0F0BDE680FF1FF0B583B016461F460B4D00242C700194009423460A4601462046FFF7D3FC3A4631462878FFF7A8FCD5
:400EC00002212878FFF792FC287803B0F0BD00BFE780FF1F014B1B681864704708ED00E04001C0B2014B1870704700BF00E400E0044A137803F0FB03800000F00400184336
:400F000010707047105100400230800803D000BF01380046FCD17047EFF3108072B6704780F31088704700BF81F0004102E000BF83F0004330B54FEA41044FEA430594EA4D
:400F4000050F08BF90EA020F1FBF54EA000C55EA020C7FEA645C7FEA655C00F0E2804FEA5454D4EB5555B8BF6D420CDD2C4480EA020281EA030382EA000083EA010180EA04
:400F8000020281EA0303362D88BF30BD11F0004F4FEA01314FF4801C4CEA113102D0404261EB410113F0004F4FEA03334CEA133302D0524263EB430394EA050F00F0A78051
:400FC000A4F10104D5F1200E0DDB02FA0EFC22FA05F2801841F1000103FA0EF2801843FA05F359410EE0A5F120050EF1200E012A03FA0EFC28BF4CF0020C43FA05F3C018ED
:4010000051EBE37101F0004507D54FF0000EDCF1000C7EEB00006EEB0101B1F5801F1BD3B1F5001F0CD349085FEA30004FEA3C0C04F101044FEA445212F5800F80F09A8019
:40104000BCF1004F08BF5FEA500C50F1000041EB045141EA050130BD5FEA4C0C404141EB010111F4801FA4F10104E9D191F0000F04BF01460020B1FA81F308BF2033A3F159
:401080000B03B3F120020CDA0C3208DD02F1140CC2F10C0201FA0CF021FA02F10CE002F11402D8BFC2F1200C01FA02F120FA0CFCDCBF41EA0C019040E41AA2BF01EB0451BC
:4010C000294330BD6FEA04041F3C1CDA0C340EDC04F11404C4F1200220FA04F001FA02F340EA030021FA04F345EA030130BDC4F10C04C4F1200220FA02F001FA04F340EAB6
:401100000300294630BD21FA04F0294630BD94F0000F83F4801306BF81F480110134013D4EE77FEA645C18BF7FEA655C29D094EA050F08BF90EA020F05D054EA000C04BFEC
:401140001946104630BD91EA030F1EBF0021002030BD5FEA545C05D14000494128BF41F0004130BD14F580043CBF01F5801130BD01F0004545F0FE4141F470014FF00000CB
:4011800030BD7FEA645C1ABF194610467FEA655C1CBF0B46024650EA013406BF52EA033591EA030F41F4002130BD00BF90F0000F04BF0021704730B54FF4806404F1320455
:4011C0004FF000054FF0000150E700BF90F0000F04BF0021704730B54FF4806404F1320410F0004548BF40424FF000013EE700BF42004FEAE2014FEA31014FEA02701FBFD0
:4012000012F07F4393F07F4F81F06051704792F0000F14BF93F07F4F704730B54FF4607401F0004521F0004120E700BF50EA010208BF704730B54FF000050AE050EA0102FF
:4012400008BF704730B511F0004502D5404261EB41014FF4806404F132045FEA915C3FF4DCAE4FF003025FEADC0C18BF03325FEADC0C18BF033202EBDC02C2F1200300FA40
:4012800003FC20FA02F001FA03FE40EA0E0021FA02F11444C1E600BF70B54FF0FF0C4CF4E06C1CEA11541DBF1CEA135594EA0C0F95EA0C0F00F0DEF82C4481EA030621EA8B
:4012C0004C5123EA4C5350EA013518BF52EA033541F4801143F4801338D0A0FB02CE4FF00005E1FB02E506F00042E0FB03E54FF00006E1FB03569CF0000F18BF4EF0010EAC
:40130000A4F1FF04B6F5007F64F5407404D25FEA4E0E6D4146EB060642EAC62141EA55514FEAC52040EA5E504FEACE2EB4F1FD0C88BFBCF5E06F1ED8BEF1004F08BF5FEA70
:40134000500E50F1000041EB045170BD06F0004646EA010140EA020081EA0301B4EB5C04C2BFD4EB0C0541EA045170BD41F480114FF0000E013C00F3AB8014F1360FDEBFC5
:40138000002001F0004170BDC4F10004203C35DA0C341BDC04F11404C4F1200500FA05F320FA04F001FA05F240EA020001F0004221F0004110EBD37021FA04F642EB060142
:4013C0005EEA430E08BF20EAD37070BDC4F10C04C4F1200500FA04F320FA05F001FA04F240EA020001F0004110EBD37041F100015EEA430E08BF20EAD37070BDC4F1200500
:4014000000FA05F24EEA020E20FA04F301FA05F243EA020321FA04F001F0004121FA04F220EA020000EBD3705EEA430E08BF20EAD37070BD94F0000F0FD101F000464000EE
:4014400041EB010111F4801F08BF013CF7D041EA060195F0000F18BF704703F00046520043EB030313F4801F08BF013DF7D043EA0603704794EA0C0F0CEA135518BF95EA10
:401480000C0F0CD050EA410618BF52EA4306D1D181EA030101F000414FF0000070BD50EA410606BF1046194652EA430619D094EA0C0F02D150EA013613D195EA0C0F05D10F
:4014C00052EA03361CBF104619460AD181EA030101F0004141F0FE4141F470014FF0000070BD41F0FE4141F4780170BD70B54FF0FF0C4CF4E06C1CEA11541DBF1CEA1355EE
:4015000094EA0C0F95EA0C0F00F0A7F8A4EB050481EA030E52EA03354FEA013100F088804FEA03334FF0805545EA131343EA12634FEA022245EA111545EA10654FEA0026CF
:401540000EF000419D4208BF964244F1FD0404F5407402D25B084FEA3202B61A65EB03055B084FEA32024FF480104FF4002CB6EB020E75EB030E22BFB61A754640EA0C0029
:401580005B084FEA3202B6EB020E75EB030E22BFB61A754640EA5C005B084FEA3202B6EB020E75EB030E22BFB61A754640EA9C005B084FEA3202B6EB020E75EB030E22BF50
:4015C000B61A754640EADC0055EA060E18D04FEA051545EA16754FEA06164FEAC30343EA52734FEAC2025FEA1C1CC0D111F4801F0BD141EA00014FF000004FF0004CB6E7AA
:4016000011F4801F04BF01430020B4F1FD0C88BFBCF5E06F3FF6AFAEB5EB030C04BFB6EB020C5FEA500C50F1000041EB045170BD0EF0004E4EEA113114EB5C04C2BFD4EB3E
:401640000C0541EA045170BD41F480114FF0000E013C90E645EA060E8DE60CEA135594EA0C0F08BF95EA0C0F3FF43BAF94EA0C0F0AD150EA01347FF434AF95EA0C0F7FF475
:4016800025AF104619462CE795EA0C0F06D152EA03353FF4FDAE1046194622E750EA410618BF52EA43067FF4C5AE50EA41047FF40DAF52EA43057FF4EBAE12E74FEA410297
:4016C000B2F1E04324BFB3F5001CDCF1FE5C0DD901F0004C4FEAC0024CEA5070B2F1004F40EB830008BF20F00100704711F0804F21D113F13872BCBF01F00040704741F40B
:4017000080114FEA5252C2F11802C2F1200C10FA0CF320FA02F018BF40F001004FEAC1234FEAD32303FA0CFC40EA0C0023FA02F34FEA4303CCE77FEA625307D150EA013343
:401740001EBF4FF0FE4040F44000704701F0004040F0FE4040F40000704700BF42000ED2B2F1FE4F0BD34FF09E03B3EB126209D44FEA002343F0004323FA02F070474FF005
:401780000000704712F1610F01D1420202D14FF0FF3070474FF00000704700BF014B1868704700BF4881FF1F0E4B70B51E460E4C0025E41AA410A54204D056F825309847C3
:4017C0000135F8E700F048F8084B094C1E46E41AA4100025A54204D056F8253098470135F8E770BD6418000064180000641800006C18000010B5431E0A44914204D011F826
:40180000014B03F8014FF8E710BD03460244934202D003F8011BFAE77047000000000000005100401000305100404000C05100401000F05100401000000001400010001487
:401840000140000800400140000A004C014000020050014020004300F8B500BFF8BC08BC9E4670474D00000009040000F8B500BFF8BC08BC9E4670472900000090180000E8
:40188000C880FF1F880000004800000000000000000000007F800000030000000000E02EC05D00001800000000366E01FFFFFFFF000000000000000000000000000000000C
:4018C000000000000000000000000000000000005618000000000000000000000000000000000000000000000000000000000000000000000000000000000000000000007A
:4019000000000000000000000000000000000000E880FF1F000000000000000000000000000000000000000000000000000000000000000000000000000000000000000021
:401940000000000000000000000000000000000000000000000000000000000000000000000000000000000000000000000000000000000000000000000000000000000067
:401980000000000000000000000000000000000000000000000000000000000000000000000000000000000000000000000000000000000000000000000000000000000027
:4019C00000000000000000000000000000000000000000000000000000000000000000000000000000000000000000000000000000000000000000000000000000000000E7
:401A000000000000000000000000000000000000000000000000000000000000000000000000000000000000000000000000000000000000000000000000000000000000A6
:020000040003F7
:0200000480007A
:4000000001520040015B00400264004001010140010501400806014020070140240801403B0901402B0A0140410B0140610C0140410D01404D0E01402A0F01400814014005
:400040002E150140091701401E18014045190140281A0140401B01400B4001400341014006420140014301400144014003450140044601400447014003480140014901400A
:400080000B4C0140054D0140095001400251014008102F848A0F8D6FE604E244580459045C115F01D804D904DC11DF010180058008080A330B100C200D020F1010A01110D2
:4000C000120115011622280829822A032CA02D012E1030A031023201358239303A203E21C081C275C4BFCAEDCC9DCEA40208040808040B03160118011D011E0220043008C9
:40010000320333013604370238803E41520353025804590C5B045C195D105F018A019801A401B201BE04D608D804D904DB04DC11DD90DF01020903100504064007040940F1
:400140000B680E180F021006110814801A201E501F402684280429202A01300231093310368039403B203E104C014D404F40584063026E206F067F0293089402966498800D
:4001800099049A409C209D219E019F10A104A208A410A604A702B080C077C2EFC417CA05CC17CE2CD608D808DE100002060209300B080E040F01112C131015011601180141
:4001C0001B3C1C021D1C21202304240227032A012C022D302F043001310132063302353C3E013F015280540F5604580459045B045F01D401D804D904DB0CDC11DD10DF01BA
:4002000001020321040205200740084009040B080E060F10122A15401601171019081A8021112225294A2D603286332035013601375039203B403C203E043F105AA05B066C
:400240005C40638073407F0283408C408E04930895229642984099469A409B079C209D08A104A28AA320A620AC10B712C05DC2E7C4C7CA3BCCBFCE6CD61FD801DE10E24014
:40028000EA0802010D7F11FE1301170119C51B3A1DA31F5C210E23F025962768320137FF3F404056410349FF4AFF4BFF4DA04F015018580459045A045F01604062806440A9
:4002C0006540668068406A806C406D206E80800482028402860C8C028E048F0291089402960499089B049C01A010A401A610A701AC01B006B101B208B308B401B502B610D4
:40030000B704B820B908BA02BE50C042C106C503C6C4C72EC83DC9FFCAFFCBFFCDAFCE07CF01D018D40FD804D904DA04DB04DF05E040E280E440E540E680E840EA80EC40FA
:40034000ED20EE8000480102064009400A1010221301180419021A101B501D041F04204822082301270128202D022F203022344035483622370238403D804004410145043C
:4003800048204A044E014F20500251085250530259015A405B18610862107A808F48952099419B069D02A144A284A320A412A620C01DC205C40DCAC2CCF5CE18D045D23438
:4003C000D60FD806DE01020F031004880641090A0A100B050C0C0D0F0E02104012801340144015071680184019051A801B0A1C071D0C1F03200B21032204230C240C26010A
:4004000028202B202E20302031203210334034C03510360F370F3A203E01580459045F018094815782608CCF8D378E30907391019302943096C99707989E99619A609B02B2
:400440009D609F04A0FDA202A308A504AA0FB30FB570B6FFB770B9A0BE40D804D904DF01002001820320054209400A100B440D100E800F20100212281302172219C11A10A4
:400480001B341F80214122082347254426C4272429022B042FA03002314033243542362439A23D803F01C09FC27FC45FCAC5CCFFCE9DE604580459045C115F01D804D9043D
:4004C000DC11DF010040011002100502062009040A010CA010A014801530161429802A142B042C202D022F0230A03480358038403A203D103E013F08862188A08B028C4060
:400500008D029120960199809D02A104A304A4A0C037C2C5C47CCADECC1CCEECE208EC2089108D848E108F04952096219D82A4A0E880130216011E041F012A02300132048B
:400540003301340237025602573D580459045B0C5C115D105F01810187018D0195019901A101A901B701D804D904DC11DF010120020103100480051509080A440C880F0861
:400580001301150216281C201D1D1E441F1020022402271029112D202F1431083310375138823B493C243F415E2067806C086D146F4174A076087F028001830489088C041A
:4005C0008D108E4093809402960497209C209D219E019F10A210A302A410A508B040B148C0F7C2EEC478CA65CCB6CEFBD620D880DE10E240E660E8802601300158045904F3
:400600005C115F018040828083048604870189048A018E08901092209602980199019C029F02A080A240A310A408A708A820A902AA10AC04AD08B31FB6FFB908BE40BF04DD
:40064000D804D904DC10DF01000103120483051006A1071009080A440CE80D080E400F281104120815141602174118801B021F402608272029102B122C082D042F423101C9
:400680003208331034403511360838023EA23F085D205F2087028A208B208C01900291149244948099119B519D209E21A0A0A108B001B121B420C0FDC2FEC4F6CAFECCF7C8
:4006C000CEF1E240E6A0EC20104016803280358038023E808001C430CC30CE60E62098409D80A68081808E8098409D80A680E220984083202340A720C80293409710A720A6
:40070000AF109710A720B340EA042080B040C840B0400B020F101F2034015C089710A720C206C601CC01D601B009B701E801EA02EC04000301010A020C030D010E011002F9
:400740001A021C02000F100AE08F0F0000101000007F7F00000000000001000000000000000000000000000000000000000000000000000000000000000000000000000079
:400780000000000000000000000000000000000000000000000000000000000000000000000000000000000000000000000000000000000000000000000000000000000039
:4007C00000000000000000000000000000000000000000000000000000000000000000000000000000000000000000000000000000000000000000000000000000000000F9
:4008000000000000000000000000000000000000000000000000000000000000000000000000000000000000000000000000000000000000000000000000000000000000B8
:400840000000000000000000000000000000000000000000000000000000000000000000000000000000000000000000000000000000000000000000000000000000000078
:0200000490006A
:0400000000004005B7
:0200000490105A
:04000000BC90ACAF55
:0200000490303A
:02000000B74BFC
:0200000490402A
:4000000000000000000000000000000000000000000000000000000000000000000000000000000000000000000000000000000000000000000000000000000000000000C0
:400040000000000000000000000000000000000000000000000000000000000000000000000000000000000000000000000000000000000000000000000000000000000080
:400080000000000000000000000000000000000000000000000000000000000000000000000000000000000000000000000000000000000000000000000000000000000040
:4000C0000000000000000000000000000000000000000000000000000000000000000000000000000000000000000000000000000000000000000000000000000000000000
:0200000490501A
:0C00000000012E16106900012E21C7B46B
:00000001FF