:4000000000800020110000005D0300005D03000008B5044B1A6803F53F5302331A6000F0A5F900BFFA46004010B5054C237833B9044B13B10448AFF300800123237010BD19
:400040005081FF1F00000000780F0000084B10B51BB108490848AFF300800848036803B910BD074B002BFBD0BDE81040184700BF000000005481FF1F780F0000C880FF1FE4
:400080000000000010B500F0BDFC00F0DFFA00F0F1FD00F003FE002000F004FE002000F00DFE044600F070FC012000F083FA0021084600F0D9FAA0B200F0F4FA322000F035
:4000C00005FCE8E7FEE700BFF0B40022174611E050F82760F3B226F0FF0608E001EB420511F812406D78A5550132013BDBB2002BF4D10137232FEBD9F0BC704708B50A46EA
:40010000002100F030FF08BD38B50122264B1A801823264A13700E2102321180023213700222234B1A7008224FF040231A70032103F5007319701F4B1B78DBB21E490B70D0
:400140001E4B1A8041F25122023B1A80002419250CE01B4B1B7803F0010343EA440404F003044FF4F07000F0B7FE013D0DB1032CEFD115B90320FFF7A5FF124B4FF4807201
:400180001A8007221A7000220F490A704820023108701A700222033B1A700C4A137843F00303137038BD00BF80400040824000400043004008010049A14600402242004082
:4001C000254200400440004006400040A2430040F8B5164B1B78DBB2154E3478E4B2154F3D78EDB203F00701134A11701B090132137044F00303337045F003033B701022F6
:400200000E4B1A7040230E4A13700232137001220C4B1A70202203331A700A2000F06CFB3D7034704422084B1A70F8BDCF010049F8460040F94600406E5800401D5100404C
:4002400009590040285B00407658004008B500F07FFE08BD38B572B62E4A137843F00403137000240CE02C4D630019194A0011462A44084691882858FFF740FF0134E4B233
:40028000082CF0D925494FF09040FFF71DFF04212348FFF733FF042222492348FFF7D6FF224A234B1A60234A137843F0020313701032137843F0020313701F4C237843F06B
:4002C00040032370A2F58632513A137843F010031370082219491A48FFF7B8FF082219491948FFF7B3FF194A137843F008031370174D61232B70FFF707FF81232B7001223A
:40030000144B1A70FFF764FF0E2221461248FFF79DFF38BDE84600407C0F00009000004800760040E80600480876004004040444D80C014003500140A0430040D806004836
:4003400012510040E006004822510040224300400048004004000840B043004008B500F0CBFD03680C2B00D1FEE7FEE708B5104E104D16E029686B68AC68002204E051F866
:40038000040B43F8040B0432A242F8D1E868002203E0002143F8041B04328242F9D11035013E002EE6D100F0ADFDFFF76BFEFEE701000000D80F000008B5114A114B1A6050
:4003C000114A136843F40073136000230AE0032B03D80E4A52F8231000E00D490D4A42F8231001332F2BF2D90B4B1A780B4B1A70084A0B4B1A60FFF72DFF00F085F908BD8D
:400400000004FA050CED00E014ED00E0000000005D0300000080FF1FBC760040C080FF1F08ED00E010B50B4C237803F09F032370237803F0F00323702378184340F0100033
:400440002070012000F058FA237803F0EF03237010BD00BF2051004038B505460E4C237843F020032370237803F0BF032370002000F042FA237803F0F003237023781D43E5
:4004800045F010052570012000F036FA237803F0EF03237038BD00BF2051004070B5354B1A7802F08002D2B21A7033490A7802F0F00242F00F020A7001310A7802F0F002B4
:4004C0000A7001310A7802F0F0020A701A7802F0DF021A701A7842F040021A704FF4CA76002000F009FA234D2B7843F010032B70012000F001FA214B1C78E4B22B7803F02F
:40050000EF032B70002000F0F7F904F00804E4B22B7843F010032B70012000F0EDF92B7803F0EF032B7014B90A2000F0E5F9013E0CB1002ED4D10F4A137803F0BF0313704A
:40054000137803F08003DBB213700232137803F0F00313700132137803F0F00343F00F0313700132137803F0F00343F00F03137070BD00BF20510040225100402151004068
:4005800010B50446FFF78AFF2009FFF765FF04F00F00FFF761FF10BD38B505460078012404E0FFF7EDFF285D0134E4B20028F8D138BD00BF10B50446FFF770FF2009FFF7E1
:4005C00031FF04F00F00FFF72DFF10BD08B5282000F07CF90320FFF725FF052000F076F90320FFF71FFF0F2000F070F90320FFF719FF012000F06AF90220FFF713FF0520FB
:4006000000F064F90620FFF7D5FF0E20FFF7D2FF2C20FFF7CFFF0820FFF7CCFF0120FFF7C9FF0C20FFF7C6FF0320FFF7C3FF052000F04CF908BD00BF08B50C20FFF7BAFF78
:400640000122014B1A7008BD6C81FF1F08B5054B5B7823B9FFF7BAFF0122024B5A70FFF7EBFF08BD6C81FF1F08B5032819D8DFE800F002070D1381F08000FFF79BFF08BD5D
:40068000A1F14000C0B2FFF795FF08BDA1F16C00C0B2FFF78FFF08BDA1F12C00C0B2FFF789FF08BD10B584B000238DF80E30092211E0144BA3FB0013DB081C4603EB8303B7
:4006C0005900431ADBB2303304A9114401F80C3C2046013AD2B20928EBD80A4BA3FB0013DB0803EB83035900431ADBB2303304A9114401F80C3C01AB9818FFF74DFF04B060
:4007000010BD00BFCDCCCCCC0B4A7F2313708021517007E0DA0002F1804202F5F042013BDBB21370002BF5D1DB0003F1804303F5F04300221A707047CC80FF1F172815D88E
:4007400031B103010A495A5C42F020025A5405E0030107495A5C02F0DF025A540001044A835C43F00103835400207047012070471070004017280CD80001074BC1180A799B
:4007800042F004020A71C25C42F00102C254002070470120704700BF1070004017280BD80001064A835C03F0F103490001F00E0119438154002070470120704710700040CD
:4007C00041F6FF73994201D14FF4005141F6FF739A4201D14FF40052172808D8C00000F1804000F5EC408180C280002070470120704700BF172805D8034B03EB00104172A6
:4008000000207047012070471070004017281BD810B4C00000F1804404F5EC44D201D2B201F07F01114321709DF804201201D2B203F00F03134363709DF8083003F00F03B8
:40084000A3700020E07001E00120704710BC704710B500F049FB0A4B5B78182B0BD9084A1478013B5370E30003F1804303F5F0431B78137000E0FF2400F03AFB204610BD5E
:40088000CC80FF1F10F0800F0CD111F4704F0BD1C00000F1804000F5F04001808270C37000207047012070470120704710F0800F08D1C00000F1804000F5F0408180C280BE
:4008C000002070470120704701BE704710B5044605E0084B186800F0FFFAA4F50044B4F5004FF6D8034B586800FB04F000F0F4FA10BD00BFD480FF1F08B5034B1B7A00FB0C
:4009000003F000F0E9FA08BDD480FF1F70B504460E46074B1D681F2802D90020FFF7D4FF04F01F04103455F8240045F8246070BD08ED00E038B504460D46072902D90020D1
:40094000FFF7C2FF1F2C02D90020FFF7BDFF04F01F0000F1604000F564406D01EDB2057038BD00BF08B50222054B1A6005490120FFF7CCFF07210120FFF7DCFF08BD00BFDC
:4009800080E100E0390A000010B50224064B1C6000F08CF8A0F5004000B2044B1B68044A1460184410BD00BF80E100E07081FF1F00E100E0024B187800F00F00704700BF21
:4009C0006E64004040F00700014B1870704700BF8E64004008B50F20FFF7F4FFFFF7EAFF00F082FA054A137843F01003137000F07FFA0222024B1A6008BD00BF9E64004055
:400A000000E100E008B500F0A3F84FF4004000F047F80022064B1A60064B1B7823B9FFF7A1FF0122034B1A70FFF7D4FF08BD00BF7081FF1F6E81FF1F0D4B1B78DBB213F0D9
:400A4000010F06D00B490A6802F5FF427F320A6007E013F0020F04D006490A68A2F500420A6013F0040F02D00022024B1A6070476E6400407081FF1F024A137843F080036E
:400A8000137070477C640040014B1870704700BF8D640040014B1878704700BF6D640040014B1880704700BF18680040024B1B78024B188880B270470C640040986800403E
:400AC000014B188880B2704798680040014B1880704700BF58680040014B1880704700BF7868004008B501E0FFF7EAFFFFF7D2FF10F0400FF8D108BD08B5134B1A7802F04D
:400B0000F8021A701A7802F0FC021A70FFF7EAFF4FF40040FFF7DAFF4FF40040FFF7C0FF0020FFF7B1FFFFF7B5FF4FF40040FFF7D3FF00F0D9F9054A137843F0100313709C
:400B400000F0D6F908BD00BF7C6400409D64004008B5054B1B7823B9FFF7CEFF0122024B1A70FFF789FF08BD7481FF1F10B541F6FF734FF480420121022000F061F9084CED
:400B8000207041F6FF731A460121022000F076F96070044800F090F9002000F093F910BD7881FF1FD90C000070B52C4C2078FFF7E1FD6078FFF7DEFD294B1B78FF2B03D148
:400BC000FFF746FE264B1870254D2878062302460221FFF757FE214E341DA4B2224645F6A2312878FFF762FE29783078FFF702FE6B78FF2B02D1FFF72BFE6870184D6878F4
:400C0000072302460221FFF73DFE164A92B221466878FFF74BFE114C69786078FFF7EAFD01212078FFF78AFD01216078FFF786FD00F05AF90C4A137843F02003137000F03A
:400C400057F90A4B1A7842F001021A701A7842F002021A700122064B1A6070BD7881FF1FE480FF1F8881FF1F996400407864004080E200E008B5074B9B6823B9FFF776FF5D
:400C80000122044B9A6000F0C5F8FFF78DFF024B1B7808BD7881FF1F6B64004008B500F0C7F808BD044B1B7803F0FF020BB90028F8D01046704700BF6B6400404042044B67
:400CC00033F91030034A1088181A00B2704700BF8881FF1F9481FF1F704700BF08B50A280FD00C2802D0082806D102E04FF4805209E04FF4807206E00020FFF7E5FD002289
:400D000001E04FF480620021094B198042F2107303FB02F303F6C413064A82FB0302DB17C3EBE223044A1360044B198008BD00BF8C81FF1FAD8BDB689081FF1F9481FF1F79
:400D400010B500F0D1F80446184A137843F0020313701032137843F00203137002F5AA521032137843F0030313701822104B1A70013B1A7842F040021A701A7802F0FC0292
:400D80001A70C822053B1A700222A3F59753123B1A70084A137843F0080313700A20FFF7ABFD204600F0A4F810BD00BFAB4300400E5900402F5B004010B504460A280DD0D7
:400DC0000C2802D0082804D101E0C22207E0422205E00020FFF778FDC22200E08222034B1A702046FFF77AFF10BD00BF0A59004008B5064A137843F0060313700C20FFF7AB
:400E0000DBFF0022024B1A8008BD00BF095900408E81FF1F08B5054B1B7823B9FFF7E8FF0122024B1A70FFF78BFF08BD8481FF1F024A137843F001031370704708590040D8
:400E4000F0B583B016461F460B4C012525700023019300932B460A4601462846FFF7D6FC3A4631462078FFF7ABFC02212078FFF795FC207803B0F0BDE680FF1FF0B583B07D
:400E800016461F460B4D00242C700194009423460A4601462046FFF7B9FC3A4631462878FFF78EFC02212878FFF778FC287803B0F0BD00BFE780FF1F014B1B681864704795
:400EC00008ED00E04001C0B2014B1870704700BF00E400E0000000000230800803D000BF01380046FCD17047EFF3108072B6704780F31088704700BF014B1868704700BFF9
:400F00004881FF1F0E4B70B51E460E4C0025E41AA410A54204D056F8253098470135F8E700F048F8084B094C1E46E41AA4100025A54204D056F8253098470135F8E770BDD3
:400F4000C00F0000C00F0000C00F0000C80F000010B5431E0A44914204D011F8014B03F8014FF8E710BD03460244934202D003F8011BFAE770470000000000000051004050
:400F80001000305100404000C05100401000F0510040100000000140001000140140000800400140000A004C014000020050014020004300F8B500BFF8BC08BC9E467047F3
:400FC0004D000000B9030000F8B500BFF8BC08BC9E46704729000000E80F0000C880FF1F8800000048000000000000007F800000030000000000E02EC05D000018000000CE
:4010000000366E01FFFFFFFF0000000000000000000000000000000000000000000000000000000000000000B20F000000000000000000000000000000000000000000004E
:4010400000000000000000000000000000000000000000000000000000000000000000000000000000000000E880FF1F0000000000000000000000000000000000000000EA
:401080000000000000000000000000000000000000000000000000000000000000000000000000000000000000000000000000000000000000000000000000000000000030
:4010C00000000000000000000000000000000000000000000000000000000000000000000000000000000000000000000000000000000000000000000000000000000000F0
:4011000000000000000000000000000000000000000000000000000000000000000000000000000000000000000000000000000000000000000000000000000000000000AF
:40114000000000000000000000000000000000000000000000000000000000000000000000000000000000000000000000000000000000000000000000000000000000006F
:020000040003F7
:0200000480007A
:4000000001520040015B004002640040010101400103014001050140080601402307014033080140410901401E0A01402F0B0140600C0140410D0140440E01402E0F01402A
:40004000081401402F1501400F1701401F1801403D1901400C1A01402E1B01400B400140054101400442014001430140034501400446014004470140044801400149014060
:400080000C4C0140044D01400B5001400251014008102F848D6F8E0FE204E208E601580459045C115F01D804D904DC11DF01001003020504060809040B090D200F01121012
:4000C0001320161217202F02315433023554372038083A983B143D083F1582808301854086028704C063C2C7C4E6CA10CC7FCEEEE201E60802020804150116011B032801BF
:400100002C04320333013502360438803E40520353025804590C5B045C195D105F018010822086088A048B018E028F0292019440968098019C02A004A408A820AA10AC80C6
:40014000AE40B302B6FFB701BE40D602D732D804D904DB0CDC10DD10DF0100A801800280038006800704080409C80A840B800E20102A11011340160A17201A011D401E20A8
:400180002010210822802728280429802B90320833403610370839103B445B046140682A69116D406F067190720479407F028108868088808A088D109410968097809C80D9
:4001C0009D80A404A518A688A70AC05FC22FC4CFCA0FCC6ACE0ED602D808DE18580459045C115F01867488348A408C448E20960398019C049E10A044A210A608A870AE0153
:40020000B074B20CB402B601BE40D401D804D904DB0CDC10DD10DF010008018003180440051409080A800E280F0212881502160417441C401D801E68284029802B082D80CA
:400240002F48324833103440368838103C185C807F0280809102964099149A049B44A301A590A610B610C0E7C2ECC4FACABDCC5ECE64D610DE10010E03F00405060A080F3B
:40028000097F100A11A31205135C1596176818071B011C031E0C200C220325FE27012DC52F3A340F35FF3F104016410349FF4AFF4BFF4DA04F0150185280580459045A04F4
:4002C0005B045F016040628064406540668068406A806C406D206E80850188048C048F01950296029F06A404AA01B002B102B201B304B404B701B820BE10BF41C016C103FD
:40030000C523C6C4C70EC81FC9FFCAFFCBFFCDAFCE07CF01D018D40FD804D904DA04DB04DF05E040E280E440E540E680E840EA80EC40ED20EE800090020405140A100E406D
:400340000F0A10201120150219241B111D101F20224927042E402F2032883504361238883C103F0240204180442045804708486049204A804F2050C0510852105A8A5B202F
:400380006108621077407B0488408B2090189102920896409B089D14A202A304A4E0A721C063C2D4C416CA50CCEACEAAD05AD224D60FD806DE04E20801180304041405411B
:4003C000080C09400B010C020D180F021018151017021B201D2022012341240225162708290E2C182F1E311E321C3320340135403602370138883F54540F560458045904C0
:400400005B045F01810183028430850786C988FD8A028B078D018F02909E926093049504987399079C949E60A0CFA230A60FA710AB08B110B2FFB50FBE04D804D904DF018B
:400440000090032005140A400E400F4A10A0120215021610170818181B841F0821012256251027482BA52C202F0830203104334035143602380839023A103B403D203E4480
:400480003F0A59025AA4638083408D12C067C2D8C43DCA6FCCEECEFFD60FD801580459045C115F01D804D904DC11DF0101800204030205040680070208080A800B020D022F
:4004C0000F04130614481720280829052A842C402E802F01304031423240330235853602372238083B043F04900899449A809B20A202A302A804AF20C0B3C25DC45CCA9F27
:40050000CCF9CE42EA02EC20EE018612940899449A809E109F20A302A810A904AD20AF02E202E420EA08EE015608580459045B045C115D905F01820484288A208C229021AB
:4005400094209A019E10A020A608A701A824AE02AF02B102B21FB420B501B808BE04D804D904DC11DF01008801030308042009080A850BA00D880F441071118012081320D8
:400580001480172018281B0820882210234428D92A022B802F58318832103488360838203B403F445F80668084408B80910192059680970499109E809F40A020A148A38042
:4005C000A454A608A708AA42AB10AC10C04FC2FFC45FCAEFCC5ECE5CD610D810E420EE0423012B0233013702580459045C115F01D804D904DC11DF01008002440389060459
:40060000070109800B200D880F0412081304150816022020218422C829122A442F9831803208330136883B243C803F049324968099129A02A040A108A388A410A580A60827
:40064000AB48AF04B404C0CBC2E5C4A6CAEFCC5BCE56EC20130416803240358039013E808180C430CC30CE60E2208501930495019680E210824093049680E68093042040FC
:400680008740C80290409781B701EE088E1090409781E60820808B049304C840B0400B010E101F4034015E0296109781A840C206C601CC01D601B001B601E808EC0400039F
:4006C00001010A020C030D010E01100211011A021C021D01000F100AE08B0B0000101000007F7F000000000000010000000000000000000000000000000000000000000086
:4007000000000000000000000000000000000000000000000000000000000000000000000000000000000000000000000000000000000000000000000000000000000000B9
:400740000000000000000000000000000000000000000000000000000000000000000000000000000000000000000000000000000000000000000000000000000000000079
:400780000000000000000000000000000000000000000000000000000000000000000000000000000000000000000000000000000000000000000000000000000000000039
:4007C00000000000000000000000000000000000000000000000000000000000000000000000000000000000000000000000000000000000000000000000000000000000F9
:0200000490006A
:0400000000004005B7
:0200000490105A
:04000000BC90ACAF55
:0200000490303A
:02000000158366
:0200000490402A
:4000000000000000000000000000000000000000000000000000000000000000000000000000000000000000000000000000000000000000000000000000000000000000C0
:400040000000000000000000000000000000000000000000000000000000000000000000000000000000000000000000000000000000000000000000000000000000000080
:400080000000000000000000000000000000000000000000000000000000000000000000000000000000000000000000000000000000000000000000000000000000000040
:4000C0000000000000000000000000000000000000000000000000000000000000000000000000000000000000000000000000000000000000000000000000000000000000
:0200000490501A
:0C00000000012E16106900012E1E25ECD8
:00000001FF