:4000000000800020110000006D0300006D03000008B5044B1A6803F53F5302331A6000F0ADF900BFFA46004010B5054C237833B9044B13B10448AFF300800123237010BDF1
:400040005081FF1F00000000E80E0000084B10B51BB108490848AFF300800848036803B910BD074B002BFBD0BDE81040184700BF000000005481FF1FE80E0000C880FF1F06
:400080000000000008B500F023FC00F0ABFA00F04DFD00F05FFD00F0C7FE642000F070FE002000F073FE4FF4FA6000F08BFB002000F066FE642000F069FE4FF4FA6000F052
:4000C00081FBEAE7FEE700BFF0B40022174611E050F82760F3B226F0FF0608E001EB420511F812406D78A5550132013BDBB2002BF4D10137242FEBD9F0BC704708B50A466C
:40010000002100F0E8FE08BD38B50122284B1A80182328490B7002310A80274A13700E2102321180023213700222244B1A7008224FF040231A70032103F500731970204B6D
:400140001B78DBB21F490B701F4B1A8041F25122023B1A80002419250CE01C4B1B7803F0010343EA440404F003044FF4F07000F06BFE013D0DB1032CEFD115B90320FFF77E
:40018000A1FF134B4FF480721A8007221A70002210490A704820023108701A700222033B1A700D4A137843F00703137038BD00BF8040004082400040864000400043004060
:4001C00008010049A146004022420040254200400440004006400040A2430040F8B5164B1B78DBB2154E3478E4B2154F3D78EDB203F00701134A11701B090132137044F09A
:400200000303337045F003033B7010220E4B1A7040230E4A13700232137001220C4B1A70202203331A700A2000F0E2FA3D7034704422084B1A70F8BDCF010049F846004049
:40024000F94600406E5800401D51004009590040285B00407658004008B500F031FE08BD38B572B62F4A137843F00403137000240CE02D4D630019194A0011462A440846E5
:4002800091882858FFF73AFF0134E4B2072CF0D926494FF09040FFF717FF04212448FFF72DFF042223492448FFF7D6FF234A137843F0020313701032137843F0020313706E
:4002C0001F4C237843F040032370A2F58632513A137843F01003137008221A491A48FFF7BBFF082219491A48FFF7B6FF082219491948FFF7B1FF194A137843F00803137047
:40030000174D61232B70FFF7FFFE81232B700122144B1A70FFF762FF0E2221461248FFF79BFF38BDE8460040EC0E000094000048007600400808004808760040035001408B
:40034000A0430040F007004802510040F8070048125100400008004822510040224300400048004004000840B043004008B500F07BFD03680C2B00D1FEE7FEE708B5104E72
:40038000104D16E029686B68AC68002204E051F8040B43F8040B0432A242F8D1E868002203E0002143F8041B04328242F9D11035013E002EE6D100F05DFDFFF763FEFEE764
:4003C00001000000440F000008B5114A114B1A60114A136843F40073136000230AE0032B03D80E4A52F8231000E00D490D4A42F8231001332F2BF2D90B4B1A780B4B1A70C2
:40040000084A0B4B1A60FFF72BFF00F0F9F808BD0004FA050CED00E014ED00E0000000006D0300000080FF1FBC760040C080FF1F08ED00E010B50B4C237803F09F03237085
:40044000237803F0F00323702378184340F010002070012000F0CCF9237803F0EF03237010BD00BF2051004070B5354B1A7802F08002D2B21A7033490A7802F0F00242F0AF
:400480000F020A7001310A7802F0F0020A7001310A7802F0F0020A701A7802F0DF021A701A7842F040021A704FF4CA76002000F09FF9234D2B7843F010032B70012000F0DE
:4004C00097F9214B1C78E4B22B7803F0EF032B70002000F08DF904F00804E4B22B7843F010032B70012000F083F92B7803F0EF032B7014B90A2000F07BF9013E0CB1002ECE
:40050000D4D10F4A137803F0BF031370137803F08003DBB213700232137803F0F00313700132137803F0F00343F00F0313700132137803F0F00343F00F03137070BD00BFFD
:4005400020510040225100402151004010B50446FFF78AFF2009FFF76DFF04F00F00FFF769FF10BD08B5282000F02CF90320FFF761FF052000F026F90320FFF75BFF0F20B5
:4005800000F020F90320FFF755FF012000F01AF90220FFF74FFF052000F014F90620FFF7D5FF0E20FFF7D2FF2C20FFF7CFFF0820FFF7CCFF0120FFF7C9FF0C20FFF7C6FF75
:4005C0000320FFF7C3FF052000F0FCF808BD00BF08B50C20FFF7BAFF0122014B1A7008BD6C81FF1F08B5054B5B7823B9FFF7BAFF0122024B5A70FFF7EBFF08BD6C81FF1FDD
:400600000B4A7F2313708021517007E0DA0002F1804202F5F042013BDBB21370002BF5D1DB0003F1804303F5F04300221A707047CC80FF1F172815D831B103010A495A5C5D
:4006400042F020025A5405E0030107495A5C02F0DF025A540001044A835C43F00103835400207047012070471070004017280CD80001074BC1180A7942F004020A71C25CBA
:4006800042F00102C254002070470120704700BF1070004017280BD80001064A835C03F0F103490001F00E011943815400207047012070471070004041F6FF73994201D149
:4006C0004FF4005141F6FF739A4201D14FF40052172808D8C00000F1804000F5EC408180C280002070470120704700BF172805D8034B03EB0010417200207047012070474E
:400700001070004017281BD810B4C00000F1804404F5EC44D201D2B201F07F01114321709DF804201201D2B203F00F03134363709DF8083003F00F03A3700020E07001E004
:400740000120704710BC704710B500F085FB0A4B5B78182B0BD9084A1478013B5370E30003F1804303F5F0431B78137000E0FF2400F076FB204610BDCC80FF1F10F0800F52
:400780000CD111F4704F0BD1C00000F1804000F5F04001808270C37000207047012070470120704710F0800F08D1C00000F1804000F5F0408180C280002070470120704709
:4007C00001BE704710B5044605E0084B186800F03BFBA4F50044B4F5004FF6D8034B586800FB04F000F030FB10BD00BFD480FF1F08B5034B1B7A00FB03F000F025FB08BD7A
:40080000D480FF1F70B504460E46074B1D681F2802D90020FFF7D4FF04F01F04103455F8240045F8246070BD08ED00E038B504460D46072902D90020FFF7C2FF1F2C02D980
:400840000020FFF7BDFF04F01F0000F1604000F564406D01EDB2057038BD00BF08B50222054B1A6005490120FFF7CCFF07210120FFF7DCFF08BD00BF80E100E0050900006B
:40088000024B187800F00F00704700BF6965004040F00700014B1870704700BF8965004008B50F20FFF7F4FFFFF7EAFF00F0D4FA054A137843F01003137000F0D1FA022235
:4008C000024B1A6008BD00BF9965004000E100E008B500F099F84FF4004000F047F80022064B1A60064B1B7823B9FFF7B7FF0122034B1A70FFF7D4FF08BD00BF7081FF1F0E
:400900006E81FF1F0D4B1B78DBB213F0010F06D00B490A6802F5FF427F320A6007E013F0020F04D006490A68A2F500420A6013F0040F02D00022024B1A60704769650040C7
:400940007081FF1F024A137843F080031370704779650040014B1870704700BF89640040014B1878704700BF69640040014B1880704700BF10680040014B188880B27047C6
:4009800090680040014B1880704700BF50680040014B1880704700BF7068004008B501E0FFF7EAFFFFF7DCFF10F0400FF8D108BD08B5134B1A7802F0F8021A701A7802F069
:4009C000FC021A70FFF7EAFF4FF40040FFF7DAFF4FF40040FFF7CAFF0020FFF7BBFFFFF7BFFF4FF40040FFF7D3FF00F035FA054A137843F01003137000F032FA08BD00BFCB
:400A0000796500409964004008B5054B1B7823B9FFF7CEFF0122024B1A70FFF793FF08BD7481FF1F10B541F6FF734FF480420121022000F047F9084C207041F6FF731A46EE
:400A40000121022000F05CF96070044800F076F9002000F079F910BD7881FF1F5D0B000070B52C4C2078FFF701FE6078FFF7FEFD294B1B78FF2B03D1FFF766FE264B187059
:400A8000254D2878062302460221FFF777FE214E341DA4B2224645F6A2312878FFF782FE29783078FFF722FE6B78FF2B02D1FFF74BFE6870184D6878072302460221FFF75D
:400AC0005DFE164A92B221466878FFF76BFE114C69786078FFF70AFE01212078FFF7AAFD01216078FFF7A6FD00F0B6F90C4A137843F02003137000F0B3F90A4B1A7842F045
:400B000001021A701A7842F002021A700122064B1A6070BD7881FF1FE480FF1F8881FF1F9B6400407F64004080E200E008B5074B9B6823B9FFF776FF0122044B9A6000F0A2
:400B4000ABF8FFF78DFF024B1B7808BD7881FF1F6C64004008B500F0ADF808BD704700BF08B50A280FD00C2802D0082806D102E04FF4805209E04FF4807206E00020FFF70B
:400B80001FFE002201E04FF480620021094B198042F2107303FB02F303F6C413064A82FB0302DB17C3EBE223044A1360044B198008BD00BF8C81FF1FAD8BDB689081FF1FEF
:400BC0009481FF1F10B500F047F90446184A137843F0020313701032137843F00203137002F5AA521032137843F0030313701822104B1A70013B1A7842F040021A701A785A
:400C000002F0FC021A70C822053B1A700222A3F59753123B1A70084A137843F0080313700A20FFF7E5FD204600F01AF910BD00BFAB4300400E5900402F5B004010B50446C6
:400C40000A280DD00C2802D0082804D101E0C22207E0422205E00020FFF7B2FDC22200E08222034B1A702046FFF77AFF10BD00BF0A59004008B5064A137843F00603137005
:400C80000C20FFF7DBFF0022024B1A8008BD00BF095900408E81FF1F08B5054B1B7823B9FFF7E8FF0122024B1A70FFF78BFF08BD8481FF1F024A137843F0010313707047D9
:400CC00008590040F0B583B016461F460B4C012525700023019300932B460A4601462846FFF710FD3A4631462078FFF7E5FC02212078FFF7CFFC207803B0F0BDE680FF1F87
:400D0000F0B583B016461F460B4D00242C700194009423460A4601462046FFF7F3FC3A4631462878FFF7C8FC02212878FFF7B2FC287803B0F0BD00BFE780FF1F014B1B68C3
:400D40001864704708ED00E04001C0B2014B1870704700BF00E400E0024A137843F08003137070477E640040014B1870704700BF0E640040014B1870704700BF4E64004089
:400D8000014B1870704700BF2E640040014B1870704700BF3E640040014B1870704700BF8E640040014B1878704700BF6E640040014B1878704700BF5E64004008B501E019
:400DC000FFF7F6FFFFF7EEFF10F0100FF8D108BD10B5134A137803F0C00343F009031370104C237843F0010323706420FFF7BCFF6420FFF7BFFF6420FFF7C2FF6420FFF770
:400E0000C5FF0020FFF7C8FF00F026F8237843F01003237000F024F8FFF7D0FF10BD00BF7E6400409E64004008B5054B1B7823B9FFF7CEFF0122024B1A70FFF78DFF08BD4E
:400E40008581FF1F000000000230800803D000BF01380046FCD17047EFF3108072B6704780F31088704700BF014B1868704700BF4881FF1F0E4B70B51E460E4C0025E41AA5
:400E8000A410A54204D056F8253098470135F8E700F046F8084B094C1E46E41AA4100025A54204D056F8253098470135F8E770BD2C0F00002C0F00002C0F0000340F0000A8
:400EC00010B5431E0A44914204D011F8014B03F8014FF8E710BD03460244934202D003F8011BFAE77047000000000000305100404000C05100401000F051004010000000B3
:400F00000140001000140140000800400140000A004C0140000200500140200043000000F8B500BFF8BC08BC9E4670474D000000C9030000F8B500BFF8BC08BC9E467047DE
:400F400029000000580F0000C880FF1F880000004800000000000000000000007F800000030000000000E02EC05D00001800000000366E01FFFFFFFF0000000000000000C5
:400F80000000000000000000000000000000000000000000000000001C0F000000000000000000000000000000000000000000000000000000000000000000000000000006
:400FC000000000000000000000000000000000000000000000000000E880FF1F0000000000000000000000000000000000000000000000000000000000000000000000006B
:4010000000000000000000000000000000000000000000000000000000000000000000000000000000000000000000000000000000000000000000000000000000000000B0
:401040000000000000000000000000000000000000000000000000000000000000000000000000000000000000000000000000000000000000000000000000000000000070
:401080000000000000000000000000000000000000000000000000000000000000000000000000000000000000000000000000000000000000000000000000000000000030
:4010C00000000000000000000000000000000000000000000000000000000000000000000000000000000000000000000000000000000000000000000000000000000000F0
:020000040003F7
:0200000480007A
:4000000003520040015B0040026400400165004002010140050501400C0601402E0701404D080140440901402F0A0140410B0140160C0140350D0140440E0140320F0140C5
:4000400008140140251501400816014029170140431801403F1901404E1A0140341B01400E4001400541014003420140014301400445014003460140014701400348014010
:40008000034901400F4C0140034D014009500140025101400080018009142F84896F8E0F890FE004E648820484108508E202E616580459045C225F0197019B02B101B3028E
:4000C000D804D904DC22DF010050010804400608072008420B080C680E081020140220502320286A29082A082B022C082D082F0630103108344835803604372038503B08F1
:400100003C4098329980A008A108A204A808A980AC20B002C0E7C2EBC484CA7FCC76CE1EEA05EE084056410249FF4AFF4BFF4DA04F015018580459045A045C225D015F016E
:400140006040628064406540668068406A806C406D206E80800885088704890C8C019502A303A403A60CAC03AF0CB004B102B208B301B401B508B602B704B8A0BE14BF515F
:40018000C052C103C503C6C4C72EC83DC9FFCAFFCBFFCDAFCE07CF01D018D40FD804D904DA04DB04DC11DD11DF05E040E280E440E540E680E840EA80EC40ED20EE800040F7
:4001C0000142050806800C400E900F0210221414180419461B10225929402A012C042E8232083410364038203A043E103F024004410446044720482049804D804F2050032C
:4002000051085261582059045A426108622079408C21902092409580961098549A809D089E42A240A602A928AC40AE80B240C039C2B0C465CAB9CC32CEA6D026D238D60F53
:40024000D806DE08EA2002030802300232013E01580459045C215F018010822084408680870888018B108C808E408F0292049508960899029A029C029D04A004A304A420F7
:40028000A610A701A808A901AE01B2FFB71FB980BE04BF40D602D739D804D904DB0CDC20DD20DF01001002400402050806A007090C940D280E8015C11601171418301A40BD
:4002C0001C202680270229082A012D012E98312A328034143640370238023CA03E065E2067206D016E046F1D74C0760877087F028001860887018E02900293209541960446
:400300009C409D089E20A12AA250A302A480A708B210C0FAC2F0C4F0CAF3CCFFCEF1D620D840DE10E6102201230427022B0130013302350437015401580459045B0C5C22C5
:400340005D205F01D608D804D904DB04DC22DD90DF0100010148040206200704092A0C400D080E80104015411D021E801F01240325282714284029012C802E042F09312A07
:4003800035013714380139403A203C013D403E2059805E4063027F028C1090209240932099809E10A210A302A701C07DC2BEC498CAF1CCE7CEBDD618D808DE1006040708BD
:4003C0000B060E05110412021B01230826092901300231023201330834083504360437013F044040410645D146504702481B49FF4AFF4BFF4DA04F045018528054075804E8
:4004000059045A045B045F01604062C06440654066C068C06AC06CC06EC0840492019D019E02A404A801AF03B003B301B404B702B820BE10D203D302D804D90CDB04DC293C
:40044000DD20DF010040022006100B400E800F0210201724186019121B801E801F11210222542688272029122F0130203102368038083920404048284901500C5110522092
:4004800059015AA86E206F0673407F02818087808E48C025C298C464CA15CC15CE06D001D204D60FDE10E640580459045C225F01D804D904DC22DF010044044407200862E5
:4004C00009080C080D080E0813081462286229202C082D202F023104346035843604370838443C449040982299809B20A008A204A302C0A5C26FC4B4CA3FCC72CE5AEC20C5
:40050000EE04580459045C225F01D804D904DC22DF010040012804400508084A0C480E081308140A15101720286229282C082D202F02310434603584360437083840391047
:400540003C403D109040982299809B20A008A204A302A840B720C0A7C2EDC4C4CA3FCC72CE3CEC04000E041606080901101812041410160219011A1E1C181D011E02230121
:40058000250129012D012E01301E34013501580459045C215F0180A4825084F4880189FE8B018C708DC58F3A91A39203935C9450959696A497689834990E9AC09BF09CC466
:4005C0009D7F9E30A301A608AE01B00CB2F0B402B5FFB601BE40BF10D280D40FD604D804D904DB04DC01DD10DF010042012002100504074009280A400B020D2A0E011002CE
:4006000013081602181019A61A401D021F212308262029022C442D082E80312A33403410364038103A103B803E10580A5AA06202700282028A208C5A92B0944095089854F0
:4006400099089A809D809F20A240A602A908AA02B540B610C03FC2FFC485CAF1CC3FCE2CD60FD801E604EC10009E0260070708FD09070A020C730D0710CF12301304143096
:40068000150416C9189419011A601B02231027082A0F2D012F02311032FF330F3E04580459045C105F01800781108320840B85208604871089058A108C0C8D408E028F8034
:4006C000900C910692019580960F9740980899409A019B809D039E40A106A220A510A728A940AB80AD10AF20B040B107B210B3C0B420B530B60FB708B902BB28D804D904F8
:40070000DC11DF010052055407400802092A0D2A0F021320150219081C021D501E011F4A21052360244525282608274029492F6A312A3402351036083740385039083C1553
:400740003F429010944095089601978099059F60A102A320A401A528A901C0FBC2FEC412CAFBCCF7CEFEEA04EC20EE0411081680308037803B023E80810487048C80C43068
:40078000CC30CE60E020E6106708930897029F80D8808F8097029F80970223208F10C802E4029B10B320EE049B1025029702C880AB01B102EE200B020F801F8034015B10A2
:4007C0006080830188809B10C206C601CC01D401D802E004ABC0B001EC04000701010A040C060E050F0110061A041C06000F100A0080800080000000E08F0F0004101000FA
:40080000007F7F00000000000001000000000000000000000000000000000000000000000000000000000000000000000000000000000000000000000000000000000000B9
:400840000000000000000000000000000000000000000000000000000000000000000000000000000000000000000000000000000000000000000000000000000000000078
:400880000000000000000000000000000000000000000000000000000000000000000000000000000000000000000000000000000000000000000000000000000000000038
:4008C00000000000000000000000000000000000000000000000000000000000000000000000000000000000000000000000000000000000000000000000000000000000F8
:4009000000000000000000000000000000000000000000000000000000000000000000000000000000000000000000000000000000000000000000000000000000000000B7
:0200000490006A
:0400000000004005B7
:0200000490105A
:04000000BC90ACAF55
:0200000490303A
:02000000355574
:0200000490402A
:4000000000000000000000000000000000000000000000000000000000000000000000000000000000000000000000000000000000000000000000000000000000000000C0
:400040000000000000000000000000000000000000000000000000000000000000000000000000000000000000000000000000000000000000000000000000000000000080
:400080000000000000000000000000000000000000000000000000000000000000000000000000000000000000000000000000000000000000000000000000000000000040
:4000C0000000000000000000000000000000000000000000000000000000000000000000000000000000000000000000000000000000000000000000000000000000000000
:0200000490501A
:0C00000000012E16106900012E1E45BEE6
:00000001FF